:100000000C9435010C9466010C9466010C94660105
:100010000C9466010C9466010C9466010C946601C4
:100020000C9466010C9466010C9466010C946601B4
:100030000C9466010C9466010C9466010C946601A4
:100040000C9466010C9466010C9466010C94660194
:100050000C9466010C9466010C9466010C94840661
:100060000C9466010C94F8060C94CE060C94660170
:100070000C9466010C9466010C9466010C94660164
:100080000C9466010C9466010C9466010C94660154
:100090000C9466010C9466010C9466010C94660144
:1000A0000C9466010C9466010C9466010C94660134
:1000B0000C9466010C9466010C9466010C94660124
:1000C0000C9466010C9466010C9466010C94660114
:1000D0000C9466010C9466010C9466010C94660104
:1000E0000C9466010C94EB010C94E3010C948704CE
:1000F0000C94BE010C94F5010C94FF010C94370490
:100100000C942E070C94D3010C94F1010C94C801AB
:100110000C94C4010C9495040C9464040C94CD04C8
:100120000C94D9010C94F9010C94D0010C94FE01AB
:100130000C9473040C941A050C94CC010C94E701F4
:100140000C9403020C94DD01000021002400270020
:100150002A002D00300033000101000004010701D6
:100160000A0100002200250028002B002E0031008B
:10017000340002010000050108010B0100000A0B18
:1001800002090C0D0E080703040100000000000026
:10019000000000000000000000000000000000005F
:1001A000000000000000000012111000000000001C
:1001B000000000000000000000000000000000003F
:1001C0000000000020002300260029002C002F0042
:1001D00032000001000003010601090105050505C3
:1001E000070508080808020202020A0A08080404AF
:1001F00004040101010101010101030303030303DD
:100200000303040707070C0C0C0C0C0C0C0C02026B
:10021000020206060606060606060B0B0B0B0B0B68
:100220000B0B0102102020080810204010204080F5
:1002300002010201080402010102040810204080AA
:100240008040201008040201800402018040201038
:100250000804020108040201010204081020408081
:1002600001020408102040802E0711241FBECFEF8A
:10027000D1E2DEBFCDBF00E00CBF12E0A0E0B2E0F3
:10028000EAE2FEE100E00BBF02C007900D92A83B3E
:10029000B107D9F723E0A8EBB2E001C01D92A53B5E
:1002A000B207E1F711E0C5E3D1E000E006C0219715
:1002B0000109802FFE010E94660DC433D10780E042
:1002C0000807A9F70E94A2070C94130F0C940000D2
:1002D000CF92DF92EF92FF92CF93DF93B091A90379
:1002E000A0E08111AB2F8091AA0390E0880F991FA5
:1002F000AC014E535E4FC090AF03D090B003E0907E
:10030000B103F090B20330E020E0FA01C591D4913E
:10031000E881B90190E080E0EB23EA130AC02F5F87
:100320003F4F6C157D058E059F0578F36FEF7FEFCE
:10033000CB01DF91CF91FF90EF90DF90CF900895A8
:100340008150823108F05AC0E82FF0E08827E45548
:10035000FE4F8F4F0C94660DCC01D001BE01C4013D
:10036000C801FE01D301D901DD01E301E701EB0181
:10037000F101F501FE01F901FF0103028091800006
:100380008F77809380000895809180008F7DF9CFD2
:1003900080918000877FF5CF84B58F7784BD0895E5
:1003A00084B58F7DFBCF8091B0008F778093B000B4
:1003B00008958091B0008F7DF9CF809190008F7764
:1003C000809390000895809190008F7DF9CF809167
:1003D0009000877FF5CF8091A0008F778093A00059
:1003E00008958091A0008F7DF9CF8091A000877F34
:1003F000F5CF809120018F7780932001089580911F
:1004000020018F7DF9CF80912001877FF5CFCF9399
:10041000DF93282F30E0F901E458FE4F8491F90171
:10042000EE5DFD4FD491F901E452FE4FC491CC230F
:10043000A1F081110E94A001EC2FF0E0EE0FFF1F50
:10044000EE53FE4FA591B491EC91ED2381E090E045
:1004500009F480E0DF91CF91089580E090E0FACF39
:100460001F93CF93DF93282F30E0F901E458FE4F1C
:100470008491F901EE5DFD4FD491F901E452FE4FF4
:10048000C491CC23A9F0162F81110E94A001EC2F5A
:10049000F0E0EE0FFF1FEE59FE4FA591B4918FB71C
:1004A000F894EC91111108C0D095DE23DC938FBF36
:1004B000DF91CF911F910895DE2BF8CF682F8091A7
:1004C00086030E94300280919E0390919F038230A8
:1004D000910538F0880F991F880F991F059701978C
:1004E000F1F7089581E00C945E02CF93DF9390E0E2
:1004F000FC01EE5DFD4F249184529E4FFC018491DE
:100500008823C9F090E0880F991FFC01E85BFE4F3B
:10051000A591B491FC01EE59FE4FC591D4916111A2
:100520000DC09FB7F8948C91209582238C9388817D
:10053000282328839FBFDF91CF910895623051F423
:100540009FB7F8943C91822F809583238C93E88108
:100550002E2BEFCF8FB7F894EC912E2B2C938FBFCF
:10056000EACF863308F0865320917B00982F98704D
:10057000277F922B90937B008770806480937C0010
:1005800080917A00806480937A0080917A0086FD61
:10059000FCCF809178009091790008953FB7F8944E
:1005A0008091E0029091E102A091E202B091E30219
:1005B00026B5A89B05C02F3F19F00196A11DB11DBE
:1005C0003FBFBA2FA92F982F8827BC01CD01620FFA
:1005D000711D811D911D42E0660F771F881F991FB5
:1005E0004A95D1F708958F929F92AF92BF92CF9282
:1005F000DF92EF92FF924B015C010E94CE026B01F1
:100600007C010E94CE026C197D098E099F09683E0B
:10061000734081059105A8F321E0821A9108A10891
:10062000B10888EEC80E83E0D81EE11CF11C8114CD
:100630009104A104B10429F7FF90EF90DF90CF90CF
:10064000BF90AF909F908F9008952FB7F8946091CE
:10065000DC027091DD028091DE029091DF022FBFFB
:100660000895CF92DF92EF92FF920F931F93CF9353
:10067000DF93CDB7DEB7C054D1400FB6F894DEBFDC
:100680000FBECDBF0E9425030091AB031091AC03B8
:100690002091AD033091AE036B017C01C01AD10AE9
:1006A000E20AF30A97018601003D17402105310552
:1006B00090F48091B303C05CDE4F0FB6F894DEBFB8
:1006C0000FBECDBFDF91CF911F910F91FF90EF90A3
:1006D000DF90CF9008956093AB037093AC03809349
:1006E000AD039093AE031092A6031092A50310924F
:1006F000A4031092A3031092A20362E08091A703C7
:100700000E94750261E070E080E090E00E94F302D8
:1007100061E08091A7030E94750260E08091A703C9
:100720000E9430028091A8038551823020F58BE22F
:1007300091E10197F1F762E08091A7030E947502B1
:100740008091B40390E08230910538F0880F991FB2
:10075000880F991F05970197F1F7F89480E00E94A0
:1007600068016F3F7F4F8F4F9F4F61F41092B3032B
:10077000789480E0A0CF64E170E080E090E00E9497
:10078000F302D9CF81E00E9468016F3F7F4F8F4F06
:100790009F4F61F38E010F5F1F4F6E012FEBC21A47
:1007A0002EEFD20A780180E00E946801F701608391
:1007B00071838283938381E00E946801F7016483DF
:1007C000758386839783F8E0EF0EF11CEC14FD042B
:1007D00051F7789430E020E0F801C080D180E280C9
:1007E000F3804481558166817781FFEFCF16DF0664
:1007F000EF06FF0631F04F3F8FEF58076807780785
:1008000019F41092B303B5CFF90183E0F595E7959C
:100810008A95E1F7EE55FC4F8081880FC416D50606
:10082000E606F70610F180832F5F3F4F085F1F4FEA
:100830002832310589F64091A6032091A2038091C8
:10084000A303280F3327331F8091A403280F311DE2
:100850008091A503820F932F911D992748171906A0
:1008600081F681E08093B30326CF8160DCCFAF9225
:10087000BF92CF92DF92EF92FF920F931F93CF938D
:10088000DF936C017B018B01040F151FEB015E01EF
:10089000AE18BF08C017D10759F06991D601ED9184
:1008A000FC910190F081E02DC6011995892B79F713
:1008B000C501DF91CF911F910F91FF90EF90DF90D5
:1008C000CF90BF90AF900895FC01538D448D252F9C
:1008D00030E0842F90E0821B930B541710F0CF96DA
:1008E000089501970895FC01918D828D981761F00C
:1008F000A28DAE0FBF2FB11D5D968C91928D9F5F23
:100900009F73928F90E008958FEF9FEF0895FC0101
:10091000918D828D981731F0828DE80FF11D858DB4
:1009200090E008958FEF9FEF0895FC01918D228D47
:10093000892F90E0805C9F4F821B91098F739927CC
:10094000089584EE92E00E94950421E0892B09F439
:1009500020E0822F0895FC01A48DA80FB92FB11DAE
:10096000A35ABF4F2C91848D90E001968F739927E5
:10097000848FA689B7892C93A089B1898C918370C3
:1009800080648C93938D848D981306C00288F389BC
:10099000E02D80818F7D80830895EF92FF920F93E9
:1009A0001F93CF93DF93EC0181E0888F9B8D8C8D1B
:1009B00098131AC0E889F989808185FF15C09FB70F
:1009C000F894EE89FF896083E889F98980818370D2
:1009D000806480839FBF81E090E0DF91CF911F9181
:1009E0000F91FF90EF900895F62E0B8D10E00F5FA2
:1009F0001F4F0F731127E02E8C8D8E110CC00FB678
:100A000007FCFACFE889F989808185FFF5CFCE010F
:100A10000E94AB04F1CFEB8DEC0FFD2FF11DE35ADB
:100A2000FF4FF0829FB7F8940B8FEA89FB89808192
:100A30008062CFCFCF93DF93EC01888D8823B9F00C
:100A4000AA89BB89E889F9898C9185FD03C08081D9
:100A500086FD0DC00FB607FCF7CF8C9185FFF2CF56
:100A6000808185FFEDCFCE010E94AB04E9CFDF91FD
:100A7000CF91089580E090E0892B29F00E94A10495
:100A800081110E94000080E090E0892B49F080E015
:100A900090E0892B29F00E94000081110E94000043
:100AA00080E090E0892B49F080E090E0892B29F0EC
:100AB0000E94000081110E94000080E090E0892BDC
:100AC00049F080E090E0892B29F00E94000081111C
:100AD0000C94000008958EBD00000DB407FEFDCFFC
:100AE0008EB508950F931F93009188031091890389
:100AF00020918A0330918B0340E052E16AE770E075
:100B000080E0041715072607370740F476956795A8
:100B1000579547958F5F8630A1F787E0982F906AA9
:100B20009695809581709CBD8DBD80E01F910F9141
:100B30000C945E02FF920F931F93CF93DF93C82F05
:100B4000F62E072F142F0E9472058C2F80620E94B0
:100B50006B0580938C03CF2DD02F115020F08991FD
:100B60000E946B05FACFDF91CF911F910F91FF90FB
:100B70000C947202CF93C82F0E9472058C2F806252
:100B80000E946B0580938C03CF910C947202CF93DB
:100B9000C82F0E9472058C2F0E946B0580938C03D6
:100BA0008FEF0E946B05C82F0E9472028C2FCF918D
:100BB00008950E94720580E50E946B0580938C0366
:100BC00083E70E946B050C947202CF93DF93D82FBA
:100BD000C62F0E9472058D2F80620E946B05809344
:100BE0008C038C2F0E946B05DF91CF910C947202C5
:100BF000FC0101900020E9F73197AF01481B590B28
:100C0000BC0184EE92E00C9437040C94F8058F92AA
:100C10009F92AF92BF92CF92DF92EF92FF920F938B
:100C20001F93CF93DF93CDB7DEB7A1970FB6F8949C
:100C3000DEBF0FBECDBF6C01990FEE08FF08F7FEB7
:100C400041C06DE284EE92E00E94CD048C01222727
:100C50003327A9012C193D094E095F0919A2CE01BC
:100C600081967C019AE0892E912CA12CB12CCA018D
:100C7000B901A50194010E94350D605DF7016293F1
:100C80007F01211531054105510589F790E080E08C
:100C9000309719F0CF010E94F805800F911FA1969F
:100CA0000FB6F894DEBF0FBECDBFDF91CF911F917D
:100CB0000F91FF90EF90DF90CF90BF90AF909F90FB
:100CC0008F900895A701960119A28E010F5D1F4F05
:100CD0008AE0C82ED12CE12CF12CCA01B901A70160
:100CE00096010E94350D605DF80162938F01211518
:100CF00031054105510589F790E080E0309779F2A0
:100D0000CF010E94F805CBCF1F920F920FB60F9222
:100D100011242F933F938F939F93AF93BF93809111
:100D2000DC029091DD02A091DE02B091DF023091F1
:100D3000DB0223E0230F2D3758F50196A11DB11DCD
:100D40002093DB028093DC029093DD02A093DE020D
:100D5000B093DF028091E0029091E102A091E20263
:100D6000B091E3020196A11DB11D8093E002909322
:100D7000E102A093E202B093E302BF91AF919F9191
:100D80008F913F912F910F900FBE0F901F9018954C
:100D900026E8230F0296A11DB11DD2CF1F920F92FC
:100DA0000FB60F9211240BB60F922F933F934F93D0
:100DB0005F936F937F938F939F93AF93BF93EF93C3
:100DC000FF9384EE92E00E94AB04FF91EF91BF91FC
:100DD000AF919F918F917F916F915F914F913F91D3
:100DE0002F910F900BBE0F900FBE0F901F90189574
:100DF0001F920F920FB60F9211240BB60F922F93E2
:100E00008F939F93EF93FF93E091F402F091F5029B
:100E10008081E091FA02F091FB0282FD1DC0908179
:100E20008091FD028F5F8F732091FE02821741F047
:100E3000E091FD02F0E0EC51FD4F958F8093FD02B3
:100E4000FF91EF919F918F912F910F900BBE0F907B
:100E50000FBE0F901F9018958081F2CFE4EEF2E064
:100E60001382128288EE93E0A0E0B0E08483958341
:100E7000A683B78384E292E09183808385EC90E03F
:100E80009587848784EC90E09787868780EC90E054
:100E9000918B808B81EC90E0938B828B82EC90E045
:100EA000958B848B86EC90E0978B868B118E128EBF
:100EB000138E148EA2EAB3E082E015968C931597F8
:100EC0008BE016968C931697E4E2F2E0E491179685
:100ED000EC931797EEEDF1E0E4911896EC931897E8
:100EE00040E85EE360E070E01D964D935D936D9386
:100EF0007C935097E2E8F3E088E090E0938382836C
:100F000089E090E09583848380E896E9A8E9B0E0E1
:100F100086839783A087B18780E28387128A138AAA
:100F200085E0858B81E0868B85E090E0A0E0B0E0F5
:100F3000848F958FA68FB78F81E893E0918380830C
:100F400014860895CF93DF93CDB7DEB7C254D1098D
:100F50000FB6F894DEBF0FBECDBF789484B5826023
:100F600084BD84B5816084BD85B5826085BD85B54D
:100F7000816085BD80916E00816080936E001092CB
:100F80008100809181008260809381008091810046
:100F900081608093810080918000816080938000D7
:100FA0008091B10084608093B1008091B000816035
:100FB0008093B00080919100826080939100809135
:100FC0009100816080939100809190008160809376
:100FD00090008091A10082608093A1008091A10087
:100FE00081608093A1008091A00081608093A00027
:100FF0008091210182608093210180912101816093
:101000008093210180912001816080932001809153
:101010007A00846080937A0080917A008260809365
:101020007A0080917A00816080937A0080917A00C2
:10103000806880937A001092C100E091F402F091F0
:10104000F50282E08083E091F002F091F1021082DB
:10105000E091F202F091F30280E180831092FC02B1
:10106000E091F802F091F90286E08083E091F602C7
:10107000F091F702808180618083E091F602F09127
:10108000F702808188608083E091F602F091F70298
:10109000808180688083E091F602F091F702808180
:1010A0008F7D808362E08091A7030E9475020E9479
:1010B0002503605D7740810991096093AB037093CC
:1010C000AC038093AD039093AE0387E38093B403A6
:1010D0001FB7F8948091B802811127C0E1E1F2E0D6
:1010E0008491E7E5F2E09491E82FF0E0EE0FFF1F26
:1010F000E85BFE4FA591B491EC91E92321F461E006
:1011000085E30E94300261E085E30E9475028CB5A0
:1011100080618CBD8CB580648CBD61E084E30E94ED
:10112000750261E083E30E9475028091B8028F5FCF
:101130008093B8021FBF80918403909185038F3FF5
:10114000980709F49CC020918603309187032F3FB4
:10115000320709F494C08217930741F061E00E94BE
:10116000750261E0809186030E947502809184037C
:10117000909185032091860330918703821793070E
:1011800019F060E00E94300281E00E945E0265E09A
:1011900070E080E090E00E94F3026FE584E00E943E
:1011A000E50585E590E0A0E0B0E080939A03909398
:1011B0009B03A0939C03B0939D0367E086E00E948D
:1011C000E5058DE10E94C705182F0E94D9058DE124
:1011D0000E94C70591E0181390E090939403882330
:1011E00041F0181302C00E94D90560E08DE10E9411
:1011F000E5051092960360E08CE10E94E5051092EF
:1012000098036FE381E00E94E50563E082E00E94BD
:10121000E50580E280938D0311E160918D03812FBC
:101220000E94E5051F5F1731C1F763E083E00E946C
:10123000E50585E0809397036CE40E94E50560E78F
:1012400087E00E94E50582EE0E94BA0581EE0E94C9
:10125000BA056CE080E00E94E50580E00E94C705C9
:101260008093930381FD0BC0682F626060939303AA
:1012700080E00E94E5058BE19EE40197F1F76EE6C0
:1012800085E00E94E50586E00E94C705877D4BE961
:1012900050E060E070E040939A0350939B036093AA
:1012A0009C0370939D03682F606286E00E94E505B1
:1012B00086E00E94C70586E00E94C705682F676028
:1012C00086E00E94E50588E78F8F88A389A38AA31B
:1012D0008BA31CA21DA21EA240919703BE01615EBA
:1012E0007F4F8AE00E949A0540919703BE01615E9C
:1012F0007F4F80E10E949A0562E083E00E947502C0
:1013000060E086E30E94750260E087E30E94750258
:1013100062E084E00E94750260E088E30E9475024A
:1013200060E089E30E94750262E085E00E94750238
:1013300060E08AE30E94750260E08BE30E94750220
:1013400062E086E00E94750260E08CE30E94750214
:1013500060E08DE30E94750260E08EE30E947502FA
:1013600044244A9443E0542E612C712C0E9425039E
:101370006B017C018091D7029091D802A091D90293
:10138000B091DA02A7019601281B390B4A0B5B0BBF
:10139000DA01C901883C9105A105B10508F4A6C090
:1013A0000E943103882349F08091A8038B3028F0F4
:1013B0008D3040F085518230C0F160E070E080EC0B
:1013C0009FE71CC06091A30370E090E080E00E9462
:1013D0001A0E2DEC3CEC4CEC5DE30E94A60E4B018A
:1013E0005C016091A20370E090E080E00E941A0E20
:1013F0009B01AC01C501B4010E94760D0E94E20D73
:101400007093D6026093D5020E943103882341F085
:101410008091A8038C3009F4AAC1C8F48B3081F103
:1014200060E070E080EC9FE753C06091A203709190
:10143000A30376276727762790E080E00E94180EA6
:101440002DEC3CEC4CEC5DE30E94A60ED7CF855111
:10145000823030F71091A403612F70E0762F662759
:1014600066277F778091A503682B90E080E00E943B
:10147000180E2DEC3CEC4CEC5DE30E94A60E93C1E3
:101480006091A40370E090E080E00E94180E4B0190
:101490005C011091A50317FF0AC0AC019B0160E03D
:1014A00070E080E89FEB0E94750D4B015C011F709E
:1014B000612F70E090E080E00E941A0E2DEC3CEC71
:1014C0004CEC5DE30E94A60EA50194010E94760DEE
:1014D0000E94E20D7093D4026093D302C092D702AF
:1014E000D092D802E092D902F092DA0283E00E9410
:1014F000070222242394312C892B11F0312C212C2A
:101500003092D2022092D10286E30E94B10228EEEC
:1015100033E0DC010E946E0DA30192010E94160DC2
:101520002BA73CA74DA75EA73093D0022093CF02F4
:1015300087E30E94B1022FE837E0DC010E946E0DC4
:10154000A30192010E94160D2FA738AB49AB5AABED
:101550003093CE022093CD0284E00E94070241E046
:1015600050E058A74FA3892B11F018A61FA28FA1F6
:1015700098A59093CC028093CB0288E30E94B1029D
:1015800028EE33E0DC010E946E0DA30192010E945F
:10159000160D2BAB3CAB4DAB5EAB3093CA02209328
:1015A000C90289E30E94B1022FE837E0DC010E9402
:1015B0006E0DA30192010E94160D2FAB38AF49AFFB
:1015C0005AAF3093C8022093C70285E00E940702F9
:1015D000E1E0F0E0FAA7E9A7892B11F01AA619A615
:1015E00029A53AA53093C6022093C5028AE30E943A
:1015F000B10228EE33E0DC010E946E0DA3019201DE
:101600000E94160D2BAF3CAF4DAF5EAF3093C402BE
:101610002093C3028BE30E94B1022FE837E0DC0184
:101620000E946E0DA30192010E94160D23962CAF0D
:101630003DAF4EAF5FAF23973093C2022093C102FC
:1016400086E00E94070201E010E0892B11F010E013
:1016500000E01093C0020093BF028CE30E94B1022D
:1016600028EE33E0DC010E946E0DA30192010E947E
:10167000160D49013093BE022093BD028DE30E94F6
:10168000B1022FE837E0DC010E946E0DA301920148
:101690000E94160D69013093BC022093BB028EE3B9
:1016A0000E94B10224E630E0DC010E946E0DA3012D
:1016B00092010E94160D3093BA022093B9028091D4
:1016C000D5029091D6029A8389838091D30290911A
:1016D000D4029C838B833E822D828BA59CA5988708
:1016E0008F83EFA5F8A9FA87E9878FA198A59C8732
:1016F0008B87EBA9FCA9FE87ED878FA998AD988B06
:101700008F87E9A5FAA5FA8BE98B8BAD9CAD9C8BF5
:101710008B8B2196EEADFFAD2197FE8BED8B188F55
:101720000F8B9A8E898EDC8ECB8E3E8F2D8F809183
:10173000980310E00EE1811107C010918D03012F75
:101740001F3108F00EE1101B0E94720580EA0E9412
:101750006B0580938C039E012F5F3F4F79010150F1
:1017600030F1F70181917F010E946B05F8CF109154
:10177000A403612F70E090E080E00E94180E4B01FE
:101780005C016091A5036F7070E090E080E00E94C2
:101790001A0E2DEC3CEC4CEC5DE30E94A60EA5016C
:1017A00094010E94760D17FF93CE905891CE115060
:1017B00020F080E00E946B05FACF0E9472028091B7
:1017C00084039091850320918603309187038217CB
:1017D000930719F061E00E9430020E9425036B011B
:1017E0007C018FEF0E94BA0580918C03807309F011
:1017F000E7C00E9425036C197D098E099F09603698
:1018000071058105910568F381E08093990382E376
:1018100092E00E9405068091D5029091D6020E9426
:1018200007068FE392E00E94050681E492E00E94A1
:1018300005068091D3029091D4020E94070681E5AB
:1018400092E00E9405068091D1029091D202019708
:1018500009F0D0C083E592E00E9405068CE192E099
:101860000E9405068BE592E00E9405068091CF025A
:101870009091D0020E94070681E692E00E94050640
:1018800083E692E00E9405068091CD029091CE02FF
:101890000E94070689E692E00E9405068091CB022D
:1018A0009091CC02019709F0ACC08BE692E00E94C7
:1018B000050684E192E00E94050683E792E00E941B
:1018C00005068091C9029091CA020E94070689E725
:1018D00092E00E9405068091C7029091C8020E9482
:1018E00007068091C5029091C602019709F090C049
:1018F0008FE792E00E9405068CE092E00E940506C8
:1019000087E892E00E9405068091C3029091C4028C
:101910000E94070681E692E00E9405068DE892E0AB
:101920000E9405068091C1029091C2020E940706A2
:1019300089E692E00E9405068091BF029091C00264
:10194000019709F06CC083E992E00E94050684E0EB
:1019500092E00E9405068BE992E00E9405068091C4
:10196000BD029091BE020E94070681E692E00E94AD
:10197000050681EA92E00E9405068091BB029091E3
:10198000BC020E94070689E692E00E94050687EAEB
:1019900092E00E9405068091B9029091BA020E94DD
:1019A00007068FE392E00E94050683EB92E00E9417
:1019B000F80585EB92E00E94F8050E943A05D6CC26
:1019C0008091840390918503209186033091870351
:1019D0008217930719F060E00E94300260E787E009
:1019E0000E94E50580918C0384FF11CF81EE0E9457
:1019F000BA050DCF83E592E00E94050688E192E0EA
:101A00002FCF8BE692E00E94050680E192E053CF53
:101A10008FE792E00E94050688E092E06FCF83E9AD
:101A200092E00E94050680E092E093CF052E97FB9E
:101A30001EF400940E942D0D57FD07D00E94350D15
:101A400007FC03D04EF40C942D0D50954095309525
:101A500021953F4F4F4F5F4F08959095809570951A
:101A600061957F4F8F4F9F4F0895A1E21A2EAA1BB9
:101A7000BB1BFD010DC0AA1FBB1FEE1FFF1FA2173E
:101A8000B307E407F50720F0A21BB30BE40BF50B3B
:101A9000661F771F881F991F1A9469F760957095C4
:101AA000809590959B01AC01BD01CF010895A29F47
:101AB000B001B39FC001A39F700D811D1124911D22
:101AC000B29F700D811D1124911D0895EE0FFF1F0F
:101AD000881F8BBF0790F691E02D19940E94570D37
:101AE000B7FF0895821B930B08955058BB27AA2770
:101AF0000E948D0D0C946C0E0E945E0E38F00E94B8
:101B0000650E20F039F49F3F19F426F40C945B0E17
:101B10000EF4E095E7FB0C94550EE92F0E947D0E24
:101B200058F3BA17620773078407950720F079F412
:101B3000A6F50C949F0E0EF4E0950B2EBA2FA02D57
:101B40000B01B90190010C01CA01A0011124FF276A
:101B5000591B99F0593F50F4503E68F11A16F04065
:101B6000A22F232F342F4427585FF3CF4695379564
:101B70002795A795F0405395C9F77EF41F16BA0B29
:101B8000620B730B840BBAF09150A1F0FF0FBB1FD7
:101B9000661F771F881FC2F70EC0BA0F621F731F20
:101BA000841F48F4879577956795B795F7959E3F7D
:101BB00008F0B0CF9395880F08F09927EE0F97950E
:101BC000879508950E94E90D6894B1110C94A00EB8
:101BD00008950E94850E88F09F5798F0B92F992795
:101BE000B751B0F0E1F0660F771F881F991F1AF008
:101BF000BA95C9F714C0B13091F00E949F0EB1E0C0
:101C000008950C949F0E672F782F8827B85F39F0BE
:101C1000B93FCCF3869577956795B395D9F73EF4A0
:101C200090958095709561957F4F8F4F9F4F089548
:101C3000E89409C097FB3EF4909580957095619566
:101C40007F4F8F4F9F4F9923A9F0F92F96E9BB271C
:101C50009395F695879577956795B795F111F8CF98
:101C6000FAF4BB0F11F460FF1BC06F5F7F4F8F4F03
:101C70009F4F16C0882311F096E911C0772321F0F9
:101C80009EE8872F762F05C0662371F096E8862F91
:101C900070E060E02AF09A95660F771F881FDAF7E8
:101CA000880F9695879597F9089597F99F6780E82B
:101CB00070E060E008959FEF80EC089500240A949E
:101CC0001616170618060906089500240A94121617
:101CD0001306140605060895092E0394000C11F44A
:101CE000882352F0BB0F40F4BF2B11F460FF04C0F7
:101CF0006F5F7F4F8F4F9F4F089557FD9058440F50
:101D0000551F59F05F3F71F04795880F97FB991F5A
:101D100061F09F3F79F08795089512161306140617
:101D2000551FF2CF4695F1DF08C0161617061806A4
:101D3000991FF1CF86957105610508940895E8947F
:101D4000BB2766277727CB0197F908950E94B90E24
:101D50000C946C0E0E945E0E38F00E94650E20F00E
:101D6000952311F00C94550E0C945B0E11240C94D9
:101D7000A00E0E947D0E70F3959FC1F3950F50E069
:101D8000551F629FF001729FBB27F00DB11D639F2D
:101D9000AA27F00DB11DAA1F649F6627B00DA11DD3
:101DA000661F829F2227B00DA11D621F739FB00D79
:101DB000A11D621F839FA00D611D221F749F3327E9
:101DC000A00D611D231F849F600D211D822F762F82
:101DD0006A2F11249F5750409AF0F1F088234AF05F
:101DE000EE0FFF1FBB1F661F771F881F91505040CB
:101DF000A9F79E3F510580F00C94550E0C94A00E4F
:101E00005F3FE4F3983ED4F3869577956795B79551
:101E1000F795E7959F5FC1F7FE2B880F911D96956B
:0A1E2000879597F90895F894FFCF15
:101E2A004F4646004F4E20004F4646004F4E200078
:101E3A004F4646004F4E20004F4646004F4E200068
:101E4A0000000000CD04370464041A0595047304E5
:101E5A0087042048756D6964697479203D3A0025C4
:101E6A00002054656D7065726174757265203D3A23
:101E7A000043002020204731533A00204731563A88
:101E8A00005600204731413A0041002020204732C5
:101E9A00533A00204732563A00204732413A00204E
:101EAA0020205031533A00205031563A0020503108
:101EBA00413A002020205032533A00205032563AFC
:101ECA0000205032413A00202020505F6C696D2872
:081EDA0025290020000D0A007B
:00000001FF
