:100000000C9438010C9469010C9469010C946901F9
:100010000C9469010C9469010C9469010C946901B8
:100020000C9469010C9469010C9469010C946901A8
:100030000C9469010C9469010C9469010C94690198
:100040000C9469010C9469010C9469010C94690188
:100050000C9469010C9469010C9469010C9490064C
:100060000C9469010C9404070C94DA060C94690151
:100070000C9469010C9469010C9469010C94690158
:100080000C9469010C9469010C9469010C94690148
:100090000C9469010C9469010C9469010C94690138
:1000A0000C9469010C9469010C9469010C94690128
:1000B0000C9469010C9469010C9469010C94690118
:1000C0000C9469010C9469010C9469010C94690108
:1000D0000C9469010C9469010C9469010C946901F8
:1000E0000C9469010C94A5040C9411020C940C025C
:1000F0000C9403020C94F1010C94E1010C94CC01DA
:100100000C94F9010C943A070C94DD040C940D0244
:100110000C94D6010C94D2010C94EB010C9497042E
:100120000C9447040C94E7010C9483040C9407028C
:100130000C94DE010C94DA010C94F5010C94FF018F
:100140000C9474040C942A050001020304050000B9
:100150002100240027002A002D0030003300010177
:100160000000040107010A01000022002500280008
:100170002B002E00310034000201000005010801AF
:100180000B0100000A0B02090C0D0E080703040105
:10019000000000000000000000000000000000005F
:1001A000000000000000000000000000000012112C
:1001B000100000000000000000000000000000002F
:1001C00000000000000000000000200023002600C6
:1001D00029002C002F00320000010000030106015D
:1001E00009010505050507050808080802020202BD
:1001F0000A0A0808040404040101010101010101C3
:100200000303030303030303040707070C0C0C0C8D
:100210000C0C0C0C02020202060606060606060676
:100220000B0B0B0B0B0B0B0B010210202008081003
:100230002040102040800201020108040201010256
:10024000040810204080804020100804020180042F
:10025000020180402010080402010804020101028A
:1002600004081020408001020408102040803A0752
:1002700011241FBECFEFD1E2DEBFCDBF00E00CBF27
:1002800012E0A0E0B2E0E2E6F0E200E00BBF02C064
:1002900007900D92A23CB107D9F723E0A2ECB2E09F
:1002A00001C01D92AB3DB207E1F711E0C8E3D1E018
:1002B00000E006C021970109802FFE010E94820EF6
:1002C000C733D10780E00807A9F70E94AE070C9456
:1002D0002F100C940000CF92DF92EF92FF92CF93F9
:1002E000DF93B091CF03A0E08111AB2F8091D003B9
:1002F00090E0880F991FAC0148535E4FC090D50322
:10030000D090D603E090D703F090D80330E020E0FF
:10031000FA01C591D491E881B90190E080E0EB2326
:10032000EA130AC02F5F3F4F6C157D058E059F05B0
:1003300078F36FEF7FEFCB01DF91CF91FF90EF90DC
:10034000DF90CF9008958230910538F0880F991F83
:10035000880F991F05970197F1F708958150823111
:1003600008F05AC0E82FF0E08827E654FE4F8F4F80
:100370000C94820EDA01DE01CC01D201D6010C020E
:10038000E101E701EB01F101F501F901FF010302D0
:100390000C0207020D021102809180008F7780937A
:1003A00080000895809180008F7DF9CF809180003A
:1003B000877FF5CF84B58F7784BD089584B58F7D11
:1003C000FBCF8091B0008F778093B000089580912B
:1003D000B0008F7DF9CF809190008F77809390004F
:1003E0000895809190008F7DF9CF80919000877F54
:1003F000F5CF8091A0008F778093A0000895809121
:10040000A0008F7DF9CF8091A000877FF5CF8091EC
:1004100020018F77809320010895809120018F7DA6
:10042000F9CF80912001877FF5CFCF93DF93282FDD
:1004300030E0F901EE57FE4F8491F901E85DFD4F80
:10044000D491F901EE51FE4FC491CC23A1F081115A
:100450000E94AE01EC2FF0E0EE0FFF1FE853FE4FBD
:10046000A591B491EC91ED2381E090E009F480E056
:10047000DF91CF91089580E090E0FACF1F93CF9362
:10048000DF93282F30E0F901EE57FE4F8491F901F8
:10049000E85DFD4FD491F901EE51FE4FC491CC239C
:1004A000A9F0162F81110E94AE01EC2FF0E0EE0FA3
:1004B000FF1FE859FE4FA591B4918FB7F894EC91C6
:1004C000111108C0D095DE23DC938FBFDF91CF914F
:1004D0001F910895DE2BF8CFCF93DF93C8EAD3E0C6
:1004E000682F8C810E943E028C8D9D8DDF91CF9173
:1004F0000C94A30181E00C946C022091AA0330912A
:10050000AB034091AC035091AD032417350721F0A4
:10051000682F822F0C943E020895CF93DF9390E0D2
:10052000FC01E85DFD4F24918E519E4FFC018491AA
:100530008823C9F090E0880F991FFC01E25BFE4F11
:10054000A591B491FC01E859FE4FC591D491611178
:100550000DC09FB7F8948C91209582238C9388814D
:10056000282328839FBFDF91CF910895623051F4F3
:100570009FB7F8943C91822F809583238C93E881D8
:100580002E2BEFCF8FB7F894EC912E2B2C938FBF9F
:10059000EACF863308F0865320917B00982F98701D
:1005A000277F922B90937B008770806480937C00E0
:1005B00080917A00806480937A0080917A0086FD31
:1005C000FCCF809178009091790008953FB7F8941E
:1005D0008091060390910703A0910803B09109034D
:1005E00026B5A89B05C02F3F19F00196A11DB11D8E
:1005F0003FBFBA2FA92F982F8827BC01CD01620FCA
:10060000711D811D911D42E0660F771F881F991F84
:100610004A95D1F708958F929F92AF92BF92CF9251
:10062000DF92EF92FF924B015C010E94E6026B01A8
:100630007C010E94E6026C197D098E099F09683EC3
:10064000734081059105A8F321E0821A9108A10861
:10065000B10888EEC80E83E0D81EE11CF11C81149D
:100660009104A104B10429F7FF90EF90DF90CF909F
:10067000BF90AF909F908F9008952FB7F89460919E
:1006800002037091030380910403909105032FBF2F
:100690000895CF92DF92EF92FF920F931F93CF9323
:1006A000DF93CDB7DEB7C054D1400FB6F894DEBFAC
:1006B0000FBECDBF0E943D030091D1031091D20324
:1006C0002091D3033091D4036B017C01C01AD10A6D
:1006D000E20AF30A97018601003D17402105310522
:1006E00090F48091D903C05CDE4F0FB6F894DEBF62
:1006F0000FBECDBFDF91CF911F910F91FF90EF9073
:10070000DF90CF9008956093D1037093D2038093CC
:10071000D3039093D4031092CC031092CB03109286
:10072000CA031092C9031092C80362E08091CD03FE
:100730000E948D0261E070E080E090E00E940B0377
:1007400061E08091CD030E948D0260E08091CD0335
:100750000E943E028091CE0385518230E0F48BE20C
:1007600091E10197F1F762E08091CD030E948D0243
:100770008091DA0390E00E94A301F89480E00E9447
:100780006B016F3F7F4F8F4F9F4F61F41092D903E2
:10079000789480E0A8CF64E170E080E090E00E946F
:1007A0000B03E1CF81E00E946B016F3F7F4F8F4FC2
:1007B0009F4F61F38E010F5F1F4F6E012FEBC21A27
:1007C0002EEFD20A780180E00E946B01F70160836E
:1007D00071838283938381E00E946B01F7016483BC
:1007E000758386839783F8E0EF0EF11CEC14FD040B
:1007F00051F7789430E020E0F801C080D180E280A9
:10080000F3804481558166817781FFEFCF16DF0643
:10081000EF06FF0631F04F3F8FEF58076807780764
:1008200019F41092D903B5CFF90183E0F595E79556
:100830008A95E1F7E853FC4F8081880FC416D506EE
:10084000E606F70610F180832F5F3F4F085F1F4FCA
:100850002832310589F64091CC032091C80380915C
:10086000C903280F3327331F8091CA03280F311D76
:100870008091CB03820F932F911D9927481719065A
:1008800081F681E08093D9032ECF8160DCCFAF92D7
:10089000BF92CF92DF92EF92FF920F931F93CF936D
:1008A000DF936C017B018B01040F151FEB015E01CF
:1008B000AE18BF08C017D10759F06991D601ED9164
:1008C000FC910190F081E02DC6011995892B79F7F3
:1008D000C501DF91CF911F910F91FF90EF90DF90B5
:1008E000CF90BF90AF900895FC01538D448D252F7C
:1008F00030E0842F90E0821B930B541710F0CF96BA
:10090000089501970895FC01918D828D981761F0EB
:10091000A28DAE0FBF2FB11D5D968C91928D9F5F02
:100920009F73928F90E008958FEF9FEF0895FC01E1
:10093000918D828D981731F0828DE80FF11D858D94
:1009400090E008958FEF9FEF0895FC01918D228D27
:10095000892F90E0805C9F4F821B91098F739927AC
:1009600008958AE093E00E94A50421E0892B09F410
:1009700020E0822F0895FC01A48DA80FB92FB11D8E
:10098000A35ABF4F2C91848D90E001968F739927C5
:10099000848FA689B7892C93A089B1898C918370A3
:1009A00080648C93938D848D981306C00288F3899C
:1009B000E02D80818F7D80830895EF92FF920F93C9
:1009C0001F93CF93DF93EC0181E0888F9B8D8C8DFB
:1009D00098131AC0E889F989808185FF15C09FB7EF
:1009E000F894EE89FF896083E889F98980818370B2
:1009F000806480839FBF81E090E0DF91CF911F9161
:100A00000F91FF90EF900895F62E0B8D10E00F5F81
:100A10001F4F0F731127E02E8C8D8E110CC00FB657
:100A200007FCFACFE889F989808185FFF5CFCE01EF
:100A30000E94BB04F1CFEB8DEC0FFD2FF11DE35AAB
:100A4000FF4FF0829FB7F8940B8FEA89FB89808172
:100A50008062CFCFCF93DF93EC01888D8823B9F0EC
:100A6000AA89BB89E889F9898C9185FD03C08081B9
:100A700086FD0DC00FB607FCF7CF8C9185FFF2CF36
:100A8000808185FFEDCFCE010E94BB04E9CFDF91CD
:100A9000CF91089580E090E0892B29F00E94B10465
:100AA00081110E94000080E090E0892B49F080E0F5
:100AB00090E0892B29F00E94000081110E94000023
:100AC00080E090E0892B49F080E090E0892B29F0CC
:100AD0000E94000081110E94000080E090E0892BBC
:100AE00049F080E090E0892B29F00E9400008111FC
:100AF0000C94000008958EBD00000DB407FEFDCFDC
:100B00008EB508950F931F930091AE031091AF031C
:100B10002091B0033091B10340E052E16AE770E008
:100B200080E0041715072607370740F47695679588
:100B3000579547958F5F8630A1F787E0982F906A89
:100B40009695809581709CBD8DBD80E01F910F9121
:100B50000C946C02CF93C82F0E9482058C2F806268
:100B60000E947B058093B203CF910C947A02CF93BD
:100B7000C82F0E9482058C2F0E947B058093B203B0
:100B80008FEF0E947B05C82F0E947A028C2FCF9195
:100B900008950F931F93CF93182FC62F0E9482059D
:100BA000812F80620E947B058093B20300E212E0F5
:100BB000C15030F0F80181918F010E947B05F8CF80
:100BC000CF911F910F910C947A020E94820580E5CB
:100BD0000E947B058093B20383E70E947B050C94FF
:100BE0007A02CF93DF93D82FC62F0E9482058D2FD4
:100BF00080620E947B058093B2038C2F0E947B054C
:100C0000DF91CF910C947A02FC0101900020E9F76A
:100C10003197AF01481B590BBC018AE093E00C945B
:100C200047040C9404068F929F92AF92BF92CF928A
:100C3000DF92EF92FF920F931F93CF93DF93CDB785
:100C4000DEB7A1970FB6F894DEBF0FBECDBF6C0123
:100C5000990FEE08FF08F7FE41C06DE28AE093E0CD
:100C60000E94DD048C0122273327A9012C193D099C
:100C70004E095F0919A2CE0181967C019AE0892E66
:100C8000912CA12CB12CCA01B901A50194010E949B
:100C9000510E605DF70162937F0121153105410519
:100CA000510589F790E080E0309719F0CF010E945C
:100CB0000406800F911FA1960FB6F894DEBF0FBEF9
:100CC000CDBFDF91CF911F910F91FF90EF90DF90FB
:100CD000CF90BF90AF909F908F900895A7019601FD
:100CE00019A28E010F5D1F4F8AE0C82ED12CE12C76
:100CF000F12CCA01B901A70196010E94510E605D55
:100D0000F80162938F01211531054105510589F7DD
:100D100090E080E0309779F2CF010E940406CBCFBB
:100D20001F920F920FB60F9211242F933F938F9320
:100D30009F93AF93BF938091020390910303A0917F
:100D40000403B09105033091010323E0230F2D37F5
:100D500058F50196A11DB11D209301038093020354
:100D600090930303A0930403B093050380910603BB
:100D700090910703A0910803B09109030196A11D6A
:100D8000B11D8093060390930703A0930803B093CB
:100D90000903BF91AF919F918F913F912F910F9038
:100DA0000FBE0F901F90189526E8230F0296A11DE5
:100DB000B11DD2CF1F920F920FB60F9211240BB616
:100DC0000F922F933F934F935F936F937F938F93E4
:100DD0009F93AF93BF93EF93FF938AE093E00E94BA
:100DE000BB04FF91EF91BF91AF919F918F917F9144
:100DF0006F915F914F913F912F910F900BBE0F908C
:100E00000FBE0F901F9018951F920F920FB60F9262
:100E100011240BB60F922F938F939F93EF93FF9311
:100E2000E0911A03F0911B038081E0912003F0917F
:100E3000210382FD1DC09081809123038F5F8F73FA
:100E400020912403821741F0E0912303F0E0E65F54
:100E5000FC4F958F80932303FF91EF919F918F918A
:100E60002F910F900BBE0F900FBE0F901F901895F3
:100E70008081F2CFEAE0F3E01382128288EE93E001
:100E8000A0E0B0E084839583A683B7838AE292E0F2
:100E90009183808385EC90E09587848784EC90E053
:100EA0009787868780EC90E0918B808B81EC90E037
:100EB000938B828B82EC90E0958B848B86EC90E018
:100EC000978B868B118E128E138E148EA8ECB3E046
:100ED00082E015968C9315978BE016968C93169757
:100EE000EAE2F2E0E4911796EC931797E4EEF1E072
:100EF000E4911896EC93189740E85EE360E070E0A8
:100F00001D964D935D936D937C935097E8EAF3E0C3
:100F100088E090E09383828387E090E095838483E8
:100F200080E896E9A8E9B0E086839783A087B18737
:100F300080E28387128A138A85E0858B81E0868B25
:100F400085E090E0A0E0B0E0848F958FA68FB78F0A
:100F500087EA93E09183808314860895CF93DF938B
:100F6000CDB7DEB76C970FB6F894DEBF0FBECDBF1E
:100F7000789484B5826084BD84B5816084BD85B574
:100F8000826085BD85B5816085BD80916E00816080
:100F900080936E0010928100809181008260809326
:100FA0008100809181008160809381008091800028
:100FB0008160809380008091B10084608093B10053
:100FC0008091B00081608093B00080919100826038
:100FD0008093910080919100816080939100809135
:100FE00090008160809390008091A1008260809346
:100FF000A1008091A10081608093A1008091A00058
:1010000081608093A0008091210182608093210102
:101010008091210181608093210180912001816074
:101020008093200180917A00846080937A0080917F
:101030007A00826080937A0080917A008160809348
:101040007A0080917A00806880937A001092C100C3
:10105000E0911A03F0911B0382E08083E091160374
:10106000F09117031082E0911803F091190380E1C9
:10107000808310922203E0911E03F0911F0386E00B
:101080008083E0911C03F0911D0380818061808347
:10109000E0911C03F0911D03808188608083E091C2
:1010A0001C03F0911D03808180688083E0911C0304
:1010B000F0911D0380818F7D808362E08091CD035C
:1010C0000E948D020E943D03605D77408109910975
:1010D0006093D1037093D2038093D3039093D4038E
:1010E00087E38093DA032FB72983F8948091C202B3
:1010F000811127C0E7E1F2E08491EDE5F2E09491FF
:10110000E82FF0E0EE0FFF1FE25BFE4FA591B491D8
:10111000EC91E92321F461E085E30E943E0261E065
:1011200085E30E948D028CB580618CBD8CB5806496
:101130008CBD61E084E30E948D0261E083E30E9444
:101140008D028091C2028F5F8093C20239813FBFBE
:101150008091AA039091AB038F3F980709F496C042
:101160002091AC033091AD032F3F320709F48EC0BC
:101170008217930741F061E00E948D0261E0809147
:10118000AC030E948D0280E00E947D0281E00E94FB
:101190006C0265E070E080E090E00E940B036FE578
:1011A00084E00E94F10585E590E0A0E0B0E0809346
:1011B000C0039093C103A093C203B093C30367E03D
:1011C00086E00E94F1058DE10E94B70589830E94A7
:1011D000E5058DE10E94B70591E0E981E81390E013
:1011E0009093BA03882349F0F981F81302C00E9452
:1011F000E50560E08DE10E94F1051092BC0360E01E
:101200008CE10E94F1051092BE036FE381E00E9421
:10121000F10563E082E00E94F10580E28093B30370
:1012200021E129836091B30389810E94F10539810D
:101230003F5F39833731B1F763E083E00E94F10506
:1012400085E08093BD036CE40E94F10560E787E0D0
:101250000E94F10582EE0E94AA0581EE0E94AA0575
:101260006CE080E00E94F10580E00E94B705809369
:10127000B90381FD0BC0682F62606093B90380E001
:101280000E94F1058BE19EE40197F1F76091BD03A7
:101290008AE00E94C9056091BD0380E10E94C905F2
:1012A00086E00E94B705682F676086E00E94F1051E
:1012B00086E00E94B705877D4BE950E060E070E072
:1012C0004093C0035093C1036093C2037093C30360
:1012D000682F606286E00E94F10586E00E94B705F3
:1012E0008CE18093B30341E149836091B303898129
:1012F0000E94F10559815F5F59835731B1F780E052
:101300000E947D028091C0039091C1030E94A301BD
:101310008091BC03882319F081EE0E94AA05609198
:10132000B9036E7F6093B90380E00E94F10582E00B
:101330000E94B705E8E4F1E0E49161E070E001C0EB
:10134000660FEA95EAF7682B82E00E94F10562E0F9
:1013500083E00E948D0260E086E30E948D0260E0DF
:1013600087E30E948D0262E084E00E948D0260E0CB
:1013700088E30E948D0260E089E30E948D0262E0B2
:1013800085E00E948D0260E08AE30E948D0260E0A9
:101390008BE30E948D0262E086E00E948D0260E095
:1013A0008CE30E948D0260E08DE30E948D0260E07C
:1013B0008EE30E948D0244244A9443E0542E612C13
:1013C000712C0E943D036B017C018091FD02909184
:1013D000FE02A091FF02B0910003A7019601281B15
:1013E000390B4A0B5B0BDA01C901883C9105A10559
:1013F000B10508F4ACC00E944903882349F08091EC
:10140000CE038B3028F08D3040F085518230C0F112
:1014100060E070E080EC9FE71CC06091C90370E061
:1014200090E080E00E94360F2DEC3CEC4CEC5DE34C
:101430000E94C20F4B015C016091C80370E090E014
:1014400080E00E94360F9B01AC01C501B4010E94EF
:10145000920E0E94FE0E7093FC026093FB020E94AB
:101460004903882341F08091CE038C3009F4CEC12A
:10147000C8F48B30A1F160E070E080EC9FE759C0C8
:101480006091C8037091C90376276727762790E09B
:1014900080E00E94340F2DEC3CEC4CEC5DE30E94AC
:1014A000C20FD7CF8551823030F7F091CA03F9834C
:1014B0006F2F70E0762F662766277F778091CB03AA
:1014C000682B90E080E00E94340F2DEC3CEC4CEC5B
:1014D0005DE30E94C20F298127FF2BC0B7C1609135
:1014E000CA0370E090E080E00E94340F4B015C0181
:1014F0003091CB03398337FF0AC0AC019B0160E018
:1015000070E080E89FEB0E94910E4B015C014981E5
:101510004F70642F70E090E080E00E94360F2DEC59
:101520003CEC4CEC5DE30E94C20FA50194010E94CB
:10153000920E0E94FE0E7093FA026093F902C0921E
:10154000FD02D092FE02E092FF02F092000383E0DF
:101550000E94150201E010E0892B11F010E000E07C
:101560001093F8020093F70286E30E94C90228EE66
:1015700033E0DC010E948A0EA30192010E94320E28
:101580002B833C834D835E833093F6022093F502D8
:1015900087E30E94C9022FE837E0DC010E948A0E2F
:1015A000A30192010E94320E2F83388749875A8700
:1015B0003093F4022093F30284E00E941502222467
:1015C0002394312C892B11F0312C212C3092F202F2
:1015D0002092F10288E30E94C90228EE33E0DC0188
:1015E0000E948A0EA30192010E94320E2B873C8733
:1015F0004D875E873093F0022093EF0289E30E94CB
:10160000C9022FE837E0DC010E948A0EA301920193
:101610000E94320E2F87388B498B5A8B3093EE0203
:101620002093ED0285E00E94150241E050E05A83CC
:101630004983892B11F01A82198289819A819093AA
:10164000EC028093EB028AE30E94C90228EE33E0A9
:10165000DC010E948A0EA30192010E94320E2B8BA4
:101660003C8B4D8B5E8B3093EA022093E9028BE337
:101670000E94C9022FE837E0DC010E948A0EA30114
:1016800092010E94320E2F8B388F498F5A8F3093E0
:10169000E8022093E70286E00E941502E1E0F0E014
:1016A000FC8FEB8F892B11F01C8E1B8E2B8D3C8DAC
:1016B0003093E6022093E5028CE30E94C90228EEF3
:1016C00033E0DC010E948A0EA30192010E94320ED7
:1016D00049013093E4022093E3028DE30E94C902A2
:1016E0002FE837E0DC010E948A0EA30192010E94DC
:1016F000320E69013093E2022093E1028EE30E94F0
:10170000C90224E630E0DC010E948A0EA3019201A6
:101710000E94320E3093E0022093DF028091FB02A0
:101720009091FC029093C4028093C3028091F902CD
:101730009091FA029093C6028093C5021093C8025A
:101740000093C7028B819C819093CA028093C90247
:10175000EF81F885F093CC02E093CB023092CE0279
:101760002092CD028B859C859093D0028093CF02EE
:10177000EF85F889F093D202E093D10289819A81B2
:101780009093D4028093D302EB89FC89F093D60224
:10179000E093D5028F89988D9093D8028093D702D9
:1017A000EB8DFC8DF093DA02E093D9029092DC028B
:1017B0008092DB02D092DE02C092DD023093E00222
:1017C0002093DF028091BE03811142C0F091B303E8
:1017D000F983FB83FD3110F02CE12B8339814B81A0
:1017E000341B39830E94820580EA0E947B05809326
:1017F000B20303EC12E08B8181508B838F3F61F148
:10180000F80181918F010E947B05F5CF5091CA03A9
:101810005983652F70E090E080E00E94340F4B0107
:101820005C016091CB036F7070E090E080E00E94FB
:10183000360F2DEC3CEC4CEC5DE30E94C20FA50191
:1018400094010E94920EE981E7FF73CE905871CE09
:1018500019825CE15B83C6CFF981F150F983FF3FC8
:1018600021F080E00E947B05F7CF0E947A0281E0A0
:101870000E947D020E943D036B017C018FEF0E945C
:10188000AA058091B203807309F0C1C10E943D0393
:101890006C197D098E099F096036710581059105D6
:1018A00068F381E08093BF0388E392E00E94110611
:1018B0008091FB029091FC020E94130685E492E065
:1018C0000E94110687E492E00E9411068091C302F3
:1018D0009091C4020E94130689E492E00E941106CE
:1018E0008BE492E00E9411068091F9029091FA0235
:1018F0000E9413068BE592E00E94110687E492E0B5
:101900000E9411068091C5029091C6020E941306A2
:1019100089E492E00E9411068091F7029091F8020A
:10192000019709F083C18DE592E00E9411068CE1D8
:1019300092E00E94110687E492E00E9411068091D5
:10194000C7029091C8020E94130689E492E00E94A7
:10195000110685E692E00E9411068091F5029091B1
:10196000F6020E9413068BE692E00E94110687E4BD
:1019700092E00E9411068091C9029091CA020E94D1
:10198000130689E492E00E9411068DE692E00E941F
:1019900011068091F3029091F4020E94130683E7EE
:1019A00092E00E94110687E492E00E941106809165
:1019B000CB029091CC020E94130689E492E00E942F
:1019C00011068091F1029091F202019709F035C160
:1019D00085E792E00E94110684E192E00E941106E0
:1019E00087E492E00E9411068091CD029091CE0290
:1019F0000E94130689E492E00E9411068DE792E0AE
:101A00000E9411068091EF029091F0020E9413064D
:101A100087E492E00E9411068091CF029091D0025B
:101A20000E94130689E492E00E9411068BE692E080
:101A30000E94110683E892E00E9411068091ED0257
:101A40009091EE020E94130683E792E00E94110635
:101A500087E492E00E9411068091D1029091D20217
:101A60000E94130689E492E00E9411068091EB0225
:101A70009091EC02019709F0E7C089E892E00E949A
:101A800011068CE092E00E94110687E492E00E9429
:101A900011068091D3029091D4020E94130689E42A
:101AA00092E00E94110681E992E00E941106809165
:101AB000E9029091EA020E9413068BE692E00E94EE
:101AC000110687E492E00E9411068091D502909160
:101AD000D6020E94130689E492E00E94110687E96B
:101AE00092E00E9411068091E7029091E8020E9424
:101AF000130683E792E00E94110687E492E00E94B9
:101B000011068091D7029091D8020E94130689E4B1
:101B100092E00E9411068091E5029091E602019701
:101B200009F099C08DE992E00E94110684E092E0EC
:101B30000E94110687E492E00E9411068091D9026A
:101B40009091DA020E94130689E492E00E94110645
:101B500085EA92E00E9411068091E3029091E402EE
:101B60000E9413068BE692E00E94110687E492E041
:101B70000E9411068091DB029091DC020E94130604
:101B800089E492E00E9411068BEA92E00E9411061D
:101B90008091E1029091E2020E94130683E792E0B5
:101BA0000E94110687E492E00E9411068091DD02F6
:101BB0009091DE020E94130689E492E00E941106D1
:101BC00081EB92E00E9411068091DF029091E00289
:101BD0000E94130685E492E00E94110687E492E0D9
:101BE0000E9411068091DF029091E0020E9413068C
:101BF00089E492E00E9411068DEB92E00E940406B7
:101C00008FEB92E00E9404060E944A05DACB80E046
:101C10000E947D0260E787E00E94F1058091B20397
:101C200084FF42CE81EE0E94AA053ECE8DE592E071
:101C30000E94110688E192E07CCE85E792E00E9446
:101C4000110680E192E0CACE89E892E00E94110676
:101C500088E092E018CF8DE992E00E94110680E0C2
:101C600092E066CF052E97FB1EF400940E94490E69
:101C700057FD07D00E94510E07FC03D04EF40C9480
:101C8000490E50954095309521953F4F4F4F5F4FEE
:101C9000089590958095709561957F4F8F4F9F4FD8
:101CA0000895A1E21A2EAA1BBB1BFD010DC0AA1F9D
:101CB000BB1FEE1FFF1FA217B307E407F50720F0B5
:101CC000A21BB30BE40BF50B661F771F881F991F30
:101CD0001A9469F760957095809590959B01AC0179
:101CE000BD01CF010895A29FB001B39FC001A39F82
:101CF000700D811D1124911DB29F700D811D112445
:101D0000911D0895EE0FFF1F881F8BBF0790F6915E
:101D1000E02D19940E94730EB7FF0895821B930B58
:101D200008955058BB27AA270E94A90E0C94880F2B
:101D30000E947A0F38F00E94810F20F039F49F3F03
:101D400019F426F40C94770F0EF4E095E7FB0C944D
:101D5000710FE92F0E94990F58F3BA1762077307A2
:101D60008407950720F079F4A6F50C94BB0F0EF4C8
:101D7000E0950B2EBA2FA02D0B01B90190010C019B
:101D8000CA01A0011124FF27591B99F0593F50F4B3
:101D9000503E68F11A16F040A22F232F342F44270B
:101DA000585FF3CF469537952795A795F040539503
:101DB000C9F77EF41F16BA0B620B730B840BBAF0D3
:101DC0009150A1F0FF0FBB1F661F771F881FC2F73E
:101DD0000EC0BA0F621F731F841F48F48795779552
:101DE0006795B795F7959E3F08F0B0CF9395880F0C
:101DF00008F09927EE0F9795879508950E94050F93
:101E00006894B1110C94BC0F08950E94A10F88F042
:101E10009F5798F0B92F9927B751B0F0E1F0660FAE
:101E2000771F881F991F1AF0BA95C9F714C0B130EF
:101E300091F00E94BB0FB1E008950C94BB0F672F87
:101E4000782F8827B85F39F0B93FCCF3869577951E
:101E50006795B395D9F73EF4909580957095619507
:101E60007F4F8F4F9F4F0895E89409C097FB3EF432
:101E700090958095709561957F4F8F4F9F4F9923D7
:101E8000A9F0F92F96E9BB279395F6958795779555
:101E90006795B795F111F8CFFAF4BB0F11F460FF15
:101EA0001BC06F5F7F4F8F4F9F4F16C0882311F06D
:101EB00096E911C0772321F09EE8872F762F05C081
:101EC000662371F096E8862F70E060E02AF09A951C
:101ED000660F771F881FDAF7880F9695879597F911
:101EE000089597F99F6780E870E060E008959FEF9C
:101EF00080EC089500240A941616170618060906A1
:101F0000089500240A94121613061406050608956F
:101F1000092E0394000C11F4882352F0BB0F40F4F7
:101F2000BF2B11F460FF04C06F5F7F4F8F4F9F4F37
:101F3000089557FD9058440F551F59F05F3F71F0B9
:101F40004795880F97FB991F61F09F3F79F0879520
:101F50000895121613061406551FF2CF4695F1DFA9
:101F600008C0161617061806991FF1CF8695710539
:101F7000610508940895E894BB2766277727CB016D
:101F800097F908950E94D50F0C94880F0E947A0F3C
:101F900038F00E94810F20F0952311F00C94710FFE
:101FA0000C94770F11240C94BC0F0E94990F70F3BE
:101FB000959FC1F3950F50E0551F629FF001729FEE
:101FC000BB27F00DB11D639FAA27F00DB11DAA1FFD
:101FD000649F6627B00DA11D661F829F2227B00D4A
:101FE000A11D621F739FB00DA11D621F839FA00DD5
:101FF000611D221F749F3327A00D611D231F849F25
:10200000600D211D822F762F6A2F11249F5750407B
:102010009AF0F1F088234AF0EE0FFF1FBB1F661FF6
:10202000771F881F91505040A9F79E3F510580F0BF
:102030000C94710F0C94BC0F5F3FE4F3983ED4F303
:10204000869577956795B795F795E7959F5FC1F763
:10205000FE2B880F911D9695879597F90895F89412
:02206000FFCFB0
:102062004F4646004F4E20004F4646004F4E20003E
:102072004F4646004F4E20004F4646004F4E20002E
:1020820034320000000000000000DD044704740444
:102092002A05A504830497042048756D6964697450
:1020A20079203D3A0025005B005D002054656D708B
:1020B20065726174757265203D3A004300202020EC
:1020C2004731533A00204731563A005600204731F3
:1020D200413A0041002020204732533A0020473243
:1020E200563A00204732413A002020205031533ADC
:1020F20000205031563A00205031413A0020202031
:102102005032533A00205032563A00205032413A6F
:1021120000202020505F6C696D2825290020000DC9
:022122000A00B1
:00000001FF
