:100000000C9438010C9469010C9469010C946901F9
:100010000C9469010C9469010C9469010C946901B8
:100020000C9469010C9469010C9469010C946901A8
:100030000C9469010C9469010C9469010C94690198
:100040000C9469010C9469010C9469010C94690188
:100050000C9469010C9469010C9469010C9490064C
:100060000C9469010C9404070C94DA060C94690151
:100070000C9469010C9469010C9469010C94690158
:100080000C9469010C9469010C9469010C94690148
:100090000C9469010C9469010C9469010C94690138
:1000A0000C9469010C9469010C9469010C94690128
:1000B0000C9469010C9469010C9469010C94690118
:1000C0000C9469010C9469010C9469010C94690108
:1000D0000C9469010C9469010C9469010C946901F8
:1000E0000C9469010C94A5040C9411020C940C025C
:1000F0000C9403020C94F1010C94E1010C94CC01DA
:100100000C94F9010C943A070C94DD040C940D0244
:100110000C94D6010C94D2010C94EB010C9497042E
:100120000C9447040C94E7010C9483040C9407028C
:100130000C94DE010C94DA010C94F5010C94FF018F
:100140000C9474040C942A050001020304050000B9
:100150002100240027002A002D0030003300010177
:100160000000040107010A01000022002500280008
:100170002B002E00310034000201000005010801AF
:100180000B0100000A0B02090C0D0E080703040105
:10019000000000000000000000000000000000005F
:1001A000000000000000000000000000000012112C
:1001B000100000000000000000000000000000002F
:1001C00000000000000000000000200023002600C6
:1001D00029002C002F00320000010000030106015D
:1001E00009010505050507050808080802020202BD
:1001F0000A0A0808040404040101010101010101C3
:100200000303030303030303040707070C0C0C0C8D
:100210000C0C0C0C02020202060606060606060676
:100220000B0B0B0B0B0B0B0B010210202008081003
:100230002040102040800201020108040201010256
:10024000040810204080804020100804020180042F
:10025000020180402010080402010804020101028A
:1002600004081020408001020408102040803A0752
:1002700011241FBECFEFD1E2DEBFCDBF00E00CBF27
:1002800012E0A0E0B2E0E8EBFFE100E00BBF02C04B
:1002900007900D92A23CB107D9F723E0A2ECB2E09F
:1002A00001C01D92AF3BB207E1F711E0C8E3D1E016
:1002B00000E006C021970109802FFE010E942D0E4B
:1002C000C733D10780E00807A9F70E94AE070C9456
:1002D000DA0F0C940000CF92DF92EF92FF92CF934F
:1002E000DF93B091B303A0E08111AB2F8091B403F1
:1002F00090E0880F991FAC0148535E4FC090B9033E
:10030000D090BA03E090BB03F090BC0330E020E053
:10031000FA01C591D491E881B90190E080E0EB2326
:10032000EA130AC02F5F3F4F6C157D058E059F05B0
:1003300078F36FEF7FEFCB01DF91CF91FF90EF90DC
:10034000DF90CF9008958230910538F0880F991F83
:10035000880F991F05970197F1F708958150823111
:1003600008F05AC0E82FF0E08827E654FE4F8F4F80
:100370000C942D0EDA01DE01CC01D201D6010C0263
:10038000E101E701EB01F101F501F901FF010302D0
:100390000C0207020D021102809180008F7780937A
:1003A00080000895809180008F7DF9CF809180003A
:1003B000877FF5CF84B58F7784BD089584B58F7D11
:1003C000FBCF8091B0008F778093B000089580912B
:1003D000B0008F7DF9CF809190008F77809390004F
:1003E0000895809190008F7DF9CF80919000877F54
:1003F000F5CF8091A0008F778093A0000895809121
:10040000A0008F7DF9CF8091A000877FF5CF8091EC
:1004100020018F77809320010895809120018F7DA6
:10042000F9CF80912001877FF5CFCF93DF93282FDD
:1004300030E0F901EE57FE4F8491F901E85DFD4F80
:10044000D491F901EE51FE4FC491CC23A1F081115A
:100450000E94AE01EC2FF0E0EE0FFF1FE853FE4FBD
:10046000A591B491EC91ED2381E090E009F480E056
:10047000DF91CF91089580E090E0FACF1F93CF9362
:10048000DF93282F30E0F901EE57FE4F8491F901F8
:10049000E85DFD4FD491F901EE51FE4FC491CC239C
:1004A000A9F0162F81110E94AE01EC2FF0E0EE0FA3
:1004B000FF1FE859FE4FA591B4918FB7F894EC91C6
:1004C000111108C0D095DE23DC938FBFDF91CF914F
:1004D0001F910895DE2BF8CFCF93DF93CCE8D3E0C4
:1004E000682F8C810E943E028C8D9D8DDF91CF9173
:1004F0000C94A30181E00C946C0220918E03309146
:100500008F0340919003509191032417350721F0F8
:10051000682F822F0C943E020895CF93DF9390E0D2
:10052000FC01E85DFD4F24918E519E4FFC018491AA
:100530008823C9F090E0880F991FFC01E25BFE4F11
:10054000A591B491FC01E859FE4FC591D491611178
:100550000DC09FB7F8948C91209582238C9388814D
:10056000282328839FBFDF91CF910895623051F4F3
:100570009FB7F8943C91822F809583238C93E881D8
:100580002E2BEFCF8FB7F894EC912E2B2C938FBF9F
:10059000EACF863308F0865320917B00982F98701D
:1005A000277F922B90937B008770806480937C00E0
:1005B00080917A00806480937A0080917A0086FD31
:1005C000FCCF809178009091790008953FB7F8941E
:1005D0008091EA029091EB02A091EC02B091ED02C1
:1005E00026B5A89B05C02F3F19F00196A11DB11D8E
:1005F0003FBFBA2FA92F982F8827BC01CD01620FCA
:10060000711D811D911D42E0660F771F881F991F84
:100610004A95D1F708958F929F92AF92BF92CF9251
:10062000DF92EF92FF924B015C010E94E6026B01A8
:100630007C010E94E6026C197D098E099F09683EC3
:10064000734081059105A8F321E0821A9108A10861
:10065000B10888EEC80E83E0D81EE11CF11C81149D
:100660009104A104B10429F7FF90EF90DF90CF909F
:10067000BF90AF909F908F9008952FB7F89460919E
:10068000E6027091E7028091E8029091E9022FBFA3
:100690000895CF92DF92EF92FF920F931F93CF9323
:1006A000DF93CDB7DEB7C054D1400FB6F894DEBFAC
:1006B0000FBECDBF0E943D030091B5031091B6035C
:1006C0002091B7033091B8036B017C01C01AD10AA5
:1006D000E20AF30A97018601003D17402105310522
:1006E00090F48091BD03C05CDE4F0FB6F894DEBF7E
:1006F0000FBECDBFDF91CF911F910F91FF90EF9073
:10070000DF90CF9008956093B5037093B603809304
:10071000B7039093B8031092B0031092AF031092F6
:10072000AE031092AD031092AC0362E08091B1036E
:100730000E948D0261E070E080E090E00E940B0377
:1007400061E08091B1030E948D0260E08091B1036D
:100750000E943E028091B20385518230E0F48BE228
:1007600091E10197F1F762E08091B1030E948D025F
:100770008091BE0390E00E94A301F89480E00E9463
:100780006B016F3F7F4F8F4F9F4F61F41092BD03FE
:10079000789480E0A8CF64E170E080E090E00E946F
:1007A0000B03E1CF81E00E946B016F3F7F4F8F4FC2
:1007B0009F4F61F38E010F5F1F4F6E012FEBC21A27
:1007C0002EEFD20A780180E00E946B01F70160836E
:1007D00071838283938381E00E946B01F7016483BC
:1007E000758386839783F8E0EF0EF11CEC14FD040B
:1007F00051F7789430E020E0F801C080D180E280A9
:10080000F3804481558166817781FFEFCF16DF0643
:10081000EF06FF0631F04F3F8FEF58076807780764
:1008200019F41092BD03B5CFF90183E0F595E79572
:100830008A95E1F7E455FC4F8081880FC416D506F0
:10084000E606F70610F180832F5F3F4F085F1F4FCA
:100850002832310589F64091B0032091AC03809194
:10086000AD03280F3327331F8091AE03280F311DAE
:100870008091AF03820F932F911D99274817190676
:1008800081F681E08093BD032ECF8160DCCFAF92F3
:10089000BF92CF92DF92EF92FF920F931F93CF936D
:1008A000DF936C017B018B01040F151FEB015E01CF
:1008B000AE18BF08C017D10759F06991D601ED9164
:1008C000FC910190F081E02DC6011995892B79F7F3
:1008D000C501DF91CF911F910F91FF90EF90DF90B5
:1008E000CF90BF90AF900895FC01538D448D252F7C
:1008F00030E0842F90E0821B930B541710F0CF96BA
:10090000089501970895FC01918D828D981761F0EB
:10091000A28DAE0FBF2FB11D5D968C91928D9F5F02
:100920009F73928F90E008958FEF9FEF0895FC01E1
:10093000918D828D981731F0828DE80FF11D858D94
:1009400090E008958FEF9FEF0895FC01918D228D27
:10095000892F90E0805C9F4F821B91098F739927AC
:1009600008958EEE92E00E94A50421E0892B09F4FF
:1009700020E0822F0895FC01A48DA80FB92FB11D8E
:10098000A35ABF4F2C91848D90E001968F739927C5
:10099000848FA689B7892C93A089B1898C918370A3
:1009A00080648C93938D848D981306C00288F3899C
:1009B000E02D80818F7D80830895EF92FF920F93C9
:1009C0001F93CF93DF93EC0181E0888F9B8D8C8DFB
:1009D00098131AC0E889F989808185FF15C09FB7EF
:1009E000F894EE89FF896083E889F98980818370B2
:1009F000806480839FBF81E090E0DF91CF911F9161
:100A00000F91FF90EF900895F62E0B8D10E00F5F81
:100A10001F4F0F731127E02E8C8D8E110CC00FB657
:100A200007FCFACFE889F989808185FFF5CFCE01EF
:100A30000E94BB04F1CFEB8DEC0FFD2FF11DE35AAB
:100A4000FF4FF0829FB7F8940B8FEA89FB89808172
:100A50008062CFCFCF93DF93EC01888D8823B9F0EC
:100A6000AA89BB89E889F9898C9185FD03C08081B9
:100A700086FD0DC00FB607FCF7CF8C9185FFF2CF36
:100A8000808185FFEDCFCE010E94BB04E9CFDF91CD
:100A9000CF91089580E090E0892B29F00E94B10465
:100AA00081110E94000080E090E0892B49F080E0F5
:100AB00090E0892B29F00E94000081110E94000023
:100AC00080E090E0892B49F080E090E0892B29F0CC
:100AD0000E94000081110E94000080E090E0892BBC
:100AE00049F080E090E0892B29F00E9400008111FC
:100AF0000C94000008958EBD00000DB407FEFDCFDC
:100B00008EB508950F931F93009192031091930354
:100B1000209194033091950340E052E16AE770E040
:100B200080E0041715072607370740F47695679588
:100B3000579547958F5F8630A1F787E0982F906A89
:100B40009695809581709CBD8DBD80E01F910F9121
:100B50000C946C02CF93C82F0E9482058C2F806268
:100B60000E947B0580939603CF910C947A02CF93D9
:100B7000C82F0E9482058C2F0E947B0580939603CC
:100B80008FEF0E947B05C82F0E947A028C2FCF9195
:100B900008950F931F93CF93182FC62F0E9482059D
:100BA000812F80620E947B058093960300E212E011
:100BB000C15030F0F80181918F010E947B05F8CF80
:100BC000CF911F910F910C947A020E94820580E5CB
:100BD0000E947B058093960383E70E947B050C941B
:100BE0007A02CF93DF93D82FC62F0E9482058D2FD4
:100BF00080620E947B05809396038C2F0E947B0568
:100C0000DF91CF910C947A02FC0101900020E9F76A
:100C10003197AF01481B590BBC018EEE92E00C944A
:100C200047040C9404068F929F92AF92BF92CF928A
:100C3000DF92EF92FF920F931F93CF93DF93CDB785
:100C4000DEB7A1970FB6F894DEBF0FBECDBF6C0123
:100C5000990FEE08FF08F7FE41C06DE28EEE92E0BC
:100C60000E94DD048C0122273327A9012C193D099C
:100C70004E095F0919A2CE0181967C019AE0892E66
:100C8000912CA12CB12CCA01B901A50194010E949B
:100C9000FC0D605DF70162937F012115310541056F
:100CA000510589F790E080E0309719F0CF010E945C
:100CB0000406800F911FA1960FB6F894DEBF0FBEF9
:100CC000CDBFDF91CF911F910F91FF90EF90DF90FB
:100CD000CF90BF90AF909F908F900895A7019601FD
:100CE00019A28E010F5D1F4F8AE0C82ED12CE12C76
:100CF000F12CCA01B901A70196010E94FC0D605DAB
:100D0000F80162938F01211531054105510589F7DD
:100D100090E080E0309779F2CF010E940406CBCFBB
:100D20001F920F920FB60F9211242F933F938F9320
:100D30009F93AF93BF938091E6029091E702A091B9
:100D4000E802B091E9023091E50223E0230F2D374C
:100D500058F50196A11DB11D2093E5028093E6028E
:100D60009093E702A093E802B093E9028091EA022F
:100D70009091EB02A091EC02B091ED020196A11DC1
:100D8000B11D8093EA029093EB02A093EC02B09322
:100D9000ED02BF91AF919F918F913F912F910F9055
:100DA0000FBE0F901F90189526E8230F0296A11DE5
:100DB000B11DD2CF1F920F920FB60F9211240BB616
:100DC0000F922F933F934F935F936F937F938F93E4
:100DD0009F93AF93BF93EF93FF938EEE92E00E94A9
:100DE000BB04FF91EF91BF91AF919F918F917F9144
:100DF0006F915F914F913F912F910F900BBE0F908C
:100E00000FBE0F901F9018951F920F920FB60F9262
:100E100011240BB60F922F938F939F93EF93FF9311
:100E2000E091FE02F091FF028081E0910403F091D5
:100E3000050382FD1DC09081809107038F5F8F7332
:100E400020910803821741F0E0910703F0E0E2519E
:100E5000FD4F958F80930703FF91EF919F918F91A5
:100E60002F910F900BBE0F900FBE0F901F901895F3
:100E70008081F2CFEEEEF2E01382128288EE93E0F0
:100E8000A0E0B0E084839583A683B7838AE292E0F2
:100E90009183808385EC90E09587848784EC90E053
:100EA0009787868780EC90E0918B808B81EC90E037
:100EB000938B828B82EC90E0958B848B86EC90E018
:100EC000978B868B118E128E138E148EACEAB3E044
:100ED00082E015968C9315978BE016968C93169757
:100EE000EAE2F2E0E4911796EC931797E4EEF1E072
:100EF000E4911896EC93189740E85EE360E070E0A8
:100F00001D964D935D936D937C935097ECE8F3E0C1
:100F100088E090E09383828387E090E095838483E8
:100F200080E896E9A8E9B0E086839783A087B18737
:100F300080E28387128A138A85E0858B81E0868B25
:100F400085E090E0A0E0B0E0848F958FA68FB78F0A
:100F50008BE893E09183808314860895CF93DF9389
:100F6000CDB7DEB7EC970FB6F894DEBF0FBECDBF9E
:100F7000789484B5826084BD84B5816084BD85B574
:100F8000826085BD85B5816085BD80916E00816080
:100F900080936E0010928100809181008260809326
:100FA0008100809181008160809381008091800028
:100FB0008160809380008091B10084608093B10053
:100FC0008091B00081608093B00080919100826038
:100FD0008093910080919100816080939100809135
:100FE00090008160809390008091A1008260809346
:100FF000A1008091A10081608093A1008091A00058
:1010000081608093A0008091210182608093210102
:101010008091210181608093210180912001816074
:101020008093200180917A00846080937A0080917F
:101030007A00826080937A0080917A008160809348
:101040007A0080917A00806880937A001092C100C3
:10105000E091FE02F091FF0282E08083E091FA02CB
:10106000F091FB021082E091FC02F091FD0280E120
:10107000808310920603E0910203F091030386E05F
:101080008083E0910003F09101038081806180837F
:10109000E0910003F0910103808188608083E091FA
:1010A0000003F0910103808180688083E091000358
:1010B000F091010380818F7D808362E08091B10394
:1010C0000E948D020E943D03605D77408109910975
:1010D0006093B5037093B6038093B7039093B803FE
:1010E00087E38093BE031FB7F8948091C2028111F9
:1010F00027C0E7E1F2E08491EDE5F2E09491E82F7A
:10110000F0E0EE0FFF1FE25BFE4FA591B491EC9172
:10111000E92321F461E085E30E943E0261E085E37A
:101120000E948D028CB580618CBD8CB580648CBDB5
:1011300061E084E30E948D0261E083E30E948D02FE
:101140008091C2028F5F8093C2021FBF80918E0385
:1011500090918F038F3F980709F491C020919003DD
:10116000309191032F3F320709F489C0821793070A
:1011700041F061E00E948D0261E0809190030E9445
:101180008D0280E00E947D0281E00E946C0265E099
:1011900070E080E090E00E940B036FE584E00E9425
:1011A000F10585E590E0A0E0B0E08093A403909382
:1011B000A503A093A603B093A70367E086E00E946F
:1011C000F1058DE10E94B705182F0E94E5058DE11C
:1011D0000E94B70591E0181390E090939E03882336
:1011E00041F0181302C00E94E50560E08DE10E9405
:1011F000F1051092A00360E08CE10E94F1051092CD
:10120000A2036FE381E00E94F10563E082E00E94A7
:10121000F10580E28093970311E160919703812F9C
:101220000E94F1051F5F1731C1F763E083E00E9460
:10123000F10585E08093A1036CE40E94F10560E76D
:1012400087E00E94F10582EE0E94AA0581EE0E94CD
:10125000AA056CE080E00E94F10580E00E94B705DD
:1012600080939D0381FD0BC0682F626060939D0396
:1012700080E00E94F1058BE19EE40197F1F7609117
:10128000A1038AE00E94C9056091A10380E10E9448
:10129000C90586E00E94B705682F676086E00E9456
:1012A000F10586E00E94B705877D4BE950E060E0DC
:1012B00070E04093A4035093A5036093A60370933A
:1012C000A703682F606286E00E94F10586E00E9415
:1012D000B70580E28093970311E160919703812F16
:1012E0000E94F1051F5F1731C1F780E00E947D0267
:1012F0008091A4039091A5030E94A3018091A00373
:10130000882319F081EE0E94AA0560919D036E7FEB
:1013100060939D0380E00E94F10582E00E94B70582
:10132000E8E4F1E0E49161E070E001C0660FEA9565
:10133000EAF7682B82E00E94F10562E083E00E94F8
:101340008D0260E086E30E948D0260E087E30E94E8
:101350008D0262E084E00E948D0260E088E30E94DA
:101360008D0260E089E30E948D0262E085E00E94C8
:101370008D0260E08AE30E948D0260E08BE30E94B0
:101380008D0262E086E00E948D0260E08CE30E94A4
:101390008D0260E08DE30E948D0260E08EE30E948A
:1013A0008D0244244A9463E0562E612C712C0E94D5
:1013B0003D036B017C018091E1029091E202A091DA
:1013C000E302B091E402A7019601281B390B4A0BF6
:1013D0005B0BDA01C901883C9105A105B10508F450
:1013E000A6C00E944903882349F08091B2038B3044
:1013F00028F08D3040F085518230C0F160E070E01F
:1014000080EC9FE71CC06091AD0370E090E080E04D
:101410000E94E10E2DEC3CEC4CEC5DE30E946D0F64
:101420004B015C016091AC0370E090E080E00E94B1
:10143000E10E9B01AC01C501B4010E943D0E0E946A
:10144000A90E7093E0026093DF020E944903882393
:1014500041F08091B2038C3009F4A4C1C8F48B3000
:1014600081F160E070E080EC9FE753C06091AC03D5
:101470007091AD0376276727762790E080E00E9481
:10148000DF0E2DEC3CEC4CEC5DE30E946D0FD7CFF2
:101490008551823030F71091AE03612F70E0762FC6
:1014A000662766277F778091AF03682B90E080E006
:1014B0000E94DF0E2DEC3CEC4CEC5DE30E946D0FC6
:1014C0008DC16091AE0370E090E080E00E94DF0E7D
:1014D0004B015C011091AF0317FF0AC0AC019B01E7
:1014E00060E070E080E89FEB0E943C0E4B015C01E5
:1014F0001F70612F70E090E080E00E94E10E2DEC03
:101500003CEC4CEC5DE30E946D0FA50194010E9440
:101510003D0E0E94A90E7093DE026093DD02C09220
:10152000E102D092E202E092E302F092E40283E070
:101530000E94150222242394312C892B11F0312C86
:10154000212C3092DC022092DB0286E30E94C90249
:1015500028EE33E0DC010E94350EA30192010E94C7
:10156000DD0D29A33AA34BA35CA33093DA022093A9
:10157000D90287E30E94C9022FE837E0DC010E940C
:10158000350EA30192010E94DD0D2DA33EA34FA3B2
:1015900058A73093D8022093D70284E00E94150206
:1015A000EE24E394F12C892B11F0F12CE12CF09234
:1015B000D602E092D50288E30E94C90228EE33E009
:1015C000DC010E94350EA30192010E94DD0D29A7C6
:1015D0003AA74BA75CA73093D4022093D30289E3A8
:1015E0000E94C9022FE837E0DC010E94350EA301FA
:1015F00092010E94DD0D2DA73EA74FA758AB309357
:10160000D2022093D10285E00E94150201E010E091
:10161000892B11F010E000E01093D0020093CF026C
:101620008AE30E94C90228EE33E0DC010E94350EF5
:10163000A30192010E94DD0D29AB3AAB4BAB5CAB31
:101640003093CE022093CD028BE30E94C9022FE893
:1016500037E0DC010E94350EA30192010E94DD0DEE
:101660002DAB3EAB4FAB58AF3093CC022093CB02A7
:1016700086E00E941502CC24C394D12C892B11F052
:10168000D12CC12CD092CA02C092C9028CE30E9414
:10169000C90228EE33E0DC010E94350EA30192015D
:1016A0000E94DD0D29AF3AAF4BAF5CAF3093C8025B
:1016B0002093C7028DE30E94C9022FE837E0DC01C6
:1016C0000E94350EA30192010E94DD0D4901309365
:1016D000C6022093C5028EE30E94C90224E630E0D0
:1016E000DC010E94350EA30192010E94DD0D3093B2
:1016F000C4022093C3028091DF029091E0029A839A
:101700008983E091DD02F091DE02F8A3EF8FFC8384
:10171000EB833E822D8289A19AA198878F83EDA1C8
:10172000FEA1FA87E987FC86EB8689A59AA59E87A4
:101730008D87EDA5FEA5F88BEF871A8B098B89A9FC
:101740009AA99C8B8B8BEDA9FEA9FE8BED8BD88E75
:10175000CF8A89AD9AAD9A8F898F9C8E8B8E3E8F62
:101760002D8F8091A20381113DC080919703C82ED7
:10177000813210F090E2C92ED82EDC180E9482052A
:1017800080EA0E947B0580939603FE0131965F01FB
:10179000CA94FFEFCF1651F1F50181915F010E94CC
:1017A0007B05F6CF1091AE03612F70E090E080E0F2
:1017B0000E94DF0E4B015C016091AF036F7070E01F
:1017C00090E080E00E94E10E2DEC3CEC4CEC5DE3FF
:1017D0000E946D0FA50194010E943D0E17FF99CE46
:1017E000905897CED12C80E2C82EC8CFDA94FFEF64
:1017F000DF1621F080E00E947B05F8CF0E947A027C
:1018000081E00E947D020E943D034B015C018FEF4D
:101810000E94AA0580919603807309F0A3C10E94DB
:101820003D03681979098A099B09603671058105AC
:10183000910568F381E08093A30388E392E00E941E
:1018400011068091DF029091E0020E94130685E468
:1018500092E00E94110687E492E00E9411068D8DAD
:101860009E8D0E94130689E492E00E9411068BE48B
:1018700092E00E9411068091DD029091DE020E94AA
:1018800013068BE592E00E94110687E492E00E9425
:1018900011068F8D98A10E94130689E492E00E94A0
:1018A00011068091DB029091DC02019709F069C179
:1018B0008DE592E00E9411068CE192E00E941106F3
:1018C00087E492E00E9411068D819E810E9413069A
:1018D00089E492E00E94110685E692E00E941106DA
:1018E0008091D9029091DA020E9413068BE692E071
:1018F0000E94110687E492E00E9411068F8198856C
:101900000E94130689E492E00E9411068DE692E09F
:101910000E9411068091D7029091D8020E9413066E
:1019200083E792E00E94110687E492E00E9411068C
:1019300089859A850E94130689E492E00E94110627
:101940008091D5029091D602019709F021C185E7D7
:1019500092E00E94110684E192E00E94110687E461
:1019600092E00E9411068B859C850E94130689E4F3
:1019700092E00E9411068DE792E00E94110680918C
:10198000D3029091D4020E94130687E492E00E9451
:1019900011068D859E850E94130689E492E00E94BF
:1019A00011068BE692E00E94110683E892E00E9405
:1019B00011068091D1029091D2020E94130683E712
:1019C00092E00E94110687E492E00E9411068F8542
:1019D00098890E94130689E492E00E941106809182
:1019E000CF029091D002019709F0D9C089E892E026
:1019F0000E9411068CE092E00E94110687E492E0BA
:101A00000E94110689899A890E94130689E492E04E
:101A10000E94110681E992E00E9411068091CD0298
:101A20009091CE020E9413068BE692E00E9411066E
:101A300087E492E00E9411068B899C890E9413061C
:101A400089E492E00E94110687E992E00E94110663
:101A50008091CB029091CC020E94130683E792E022
:101A60000E94110687E492E00E9411068D899E89EA
:101A70000E94130689E492E00E9411068091C90237
:101A80009091CA02019709F091C08DE992E00E94FD
:101A9000110684E092E00E94110687E492E00E9421
:101AA00011068F89988D0E94130689E492E00E94A6
:101AB000110685EA92E00E9411068091C70290917A
:101AC000C8020E9413068BE692E00E94110687E48A
:101AD00092E00E941106898D9A8D0E94130689E476
:101AE00092E00E9411068BEA92E00E94110680911A
:101AF000C5029091C6020E94130683E792E00E94FD
:101B0000110687E492E00E9411068B8D9C8D0E9445
:101B1000130689E492E00E94110681EB92E00E9494
:101B200011068091C3029091C4020E94130685E4BD
:101B300092E00E94110687E492E00E9411068D8DCA
:101B40009E8D0E94130689E492E00E9411068DEB9F
:101B500092E00E9404068FEB92E00E9404060E942D
:101B60004A0525CC80E00E947D0260E787E00E9464
:101B7000F1058091960384FF60CE81EE0E94AA0554
:101B80005CCE8DE592E00E94110688E192E096CE4F
:101B900085E792E00E94110680E192E0DECE89E8BE
:101BA00092E00E94110688E092E026CF8DE992E053
:101BB0000E94110680E092E06ECF052E97FB1EF486
:101BC00000940E94F40D57FD07D00E94FC0D07FC05
:101BD00003D04EF40C94F40D50954095309521951A
:101BE0003F4F4F4F5F4F0895909580957095619549
:101BF0007F4F8F4F9F4F0895A1E21A2EAA1BBB1B48
:101C0000FD010DC0AA1FBB1FEE1FFF1FA217B307C8
:101C1000E407F50720F0A21BB30BE40BF50B661FDE
:101C2000771F881F991F1A9469F7609570958095A2
:101C300090959B01AC01BD01CF010895A29FB00119
:101C4000B39FC001A39F700D811D1124911DB29FF0
:101C5000700D811D1124911D0895EE0FFF1F881F27
:101C60008BBF0790F691E02D19940E941E0EB7FFCE
:101C70000895821B930B08955058BB27AA270E94F2
:101C8000540E0C94330F0E94250F38F00E942C0F35
:101C900020F039F49F3F19F426F40C94220F0EF42F
:101CA000E095E7FB0C941C0FE92F0E94440F58F3BA
:101CB000BA17620773078407950720F079F4A6F531
:101CC0000C94660F0EF4E0950B2EBA2FA02D0B018D
:101CD000B90190010C01CA01A0011124FF27591B71
:101CE00099F0593F50F4503E68F11A16F040A22F77
:101CF000232F342F4427585FF3CF469537952795E8
:101D0000A795F0405395C9F77EF41F16BA0B620BE6
:101D1000730B840BBAF09150A1F0FF0FBB1F661F2D
:101D2000771F881FC2F70EC0BA0F621F731F841F70
:101D300048F4879577956795B795F7959E3F08F096
:101D4000B0CF9395880F08F09927EE0F9795879558
:101D500008950E94B00E6894B1110C94670F089515
:101D60000E944C0F88F09F5798F0B92F9927B751D0
:101D7000B0F0E1F0660F771F881F991F1AF0BA952F
:101D8000C9F714C0B13091F00E94660FB1E0089518
:101D90000C94660F672F782F8827B85F39F0B93F0A
:101DA000CCF3869577956795B395D9F73EF49095E2
:101DB0008095709561957F4F8F4F9F4F0895E89460
:101DC00009C097FB3EF490958095709561957F4F83
:101DD0008F4F9F4F9923A9F0F92F96E9BB27939531
:101DE000F695879577956795B795F111F8CFFAF441
:101DF000BB0F11F460FF1BC06F5F7F4F8F4F9F4F72
:101E000016C0882311F096E911C0772321F09EE8CF
:101E1000872F762F05C0662371F096E8862F70E035
:101E200060E02AF09A95660F771F881FDAF7880F0F
:101E30009695879597F9089597F99F6780E870E0E0
:101E400060E008959FEF80EC089500240A94161630
:101E5000170618060906089500240A941216130698
:101E6000140605060895092E0394000C11F4882326
:101E700052F0BB0F40F4BF2B11F460FF04C06F5F42
:101E80007F4F8F4F9F4F089557FD9058440F551F18
:101E900059F05F3F71F04795880F97FB991F61F0EC
:101EA0009F3F79F087950895121613061406551F63
:101EB000F2CF4695F1DF08C0161617061806991FCF
:101EC000F1CF86957105610508940895E894BB27C4
:101ED00066277727CB0197F908950E94800F0C940D
:101EE000330F0E94250F38F00E942C0F20F095230D
:101EF00011F00C941C0F0C94220F11240C94670FFA
:101F00000E94440F70F3959FC1F3950F50E0551F49
:101F1000629FF001729FBB27F00DB11D639FAA273E
:101F2000F00DB11DAA1F649F6627B00DA11D661F8D
:101F3000829F2227B00DA11D621F739FB00DA11DAE
:101F4000621F839FA00D611D221F749F3327A00D68
:101F5000611D231F849F600D211D822F762F6A2F04
:101F600011249F5750409AF0F1F088234AF0EE0F69
:101F7000FF1FBB1F661F771F881F91505040A9F796
:101F80009E3F510580F00C941C0F0C94670F5F3F2F
:101F9000E4F3983ED4F3869577956795B795F795D2
:101FA000E7959F5FC1F7FE2B880F911D969587954A
:081FB00097F90895F894FFCFA2
:101FB8004F4646004F4E20004F4646004F4E2000E9
:101FC8004F4646004F4E20004F4646004F4E2000D9
:101FD80034320000000000000000DD0447047404EF
:101FE8002A05A504830497042048756D69646974FB
:101FF80079203D3A0025005B005D002054656D7036
:1020080065726174757265203D3A00430020202096
:102018004731533A00204731563A0056002047319D
:10202800413A0041002020204732533A00204732ED
:10203800563A00204732413A002020205031533A86
:1020480000205031563A00205031413A00202020DB
:102058005032533A00205032563A00205032413A1A
:1020680000202020505F6C696D2825290020000D74
:022078000A005C
:00000001FF
